{
  "_format": "hh-sol-artifact-1",
  "contractName": "YieldFarm",
  "sourceName": "contracts/YieldFarm.sol",
  "abi": [
    {
      "inputs": [
        {
          "internalType": "address",
          "name": "_stakingToken",
          "type": "address"
        },
        {
          "internalType": "address",
          "name": "_rewardToken",
          "type": "address"
        }
      ],
      "stateMutability": "nonpayable",
      "type": "constructor"
    },
    {
      "inputs": [
        {
          "internalType": "address",
          "name": "",
          "type": "address"
        }
      ],
      "name": "balances",
      "outputs": [
        {
          "internalType": "uint256",
          "name": "",
          "type": "uint256"
        }
      ],
      "stateMutability": "view",
      "type": "function"
    },
    {
      "inputs": [
        {
          "internalType": "address",
          "name": "",
          "type": "address"
        }
      ],
      "name": "lastStakedTime",
      "outputs": [
        {
          "internalType": "uint256",
          "name": "",
          "type": "uint256"
        }
      ],
      "stateMutability": "view",
      "type": "function"
    },
    {
      "inputs": [],
      "name": "rewardRate",
      "outputs": [
        {
          "internalType": "uint256",
          "name": "",
          "type": "uint256"
        }
      ],
      "stateMutability": "view",
      "type": "function"
    },
    {
      "inputs": [],
      "name": "rewardToken",
      "outputs": [
        {
          "internalType": "contract IERC20",
          "name": "",
          "type": "address"
        }
      ],
      "stateMutability": "view",
      "type": "function"
    },
    {
      "inputs": [
        {
          "internalType": "uint256",
          "name": "amount",
          "type": "uint256"
        }
      ],
      "name": "stake",
      "outputs": [],
      "stateMutability": "nonpayable",
      "type": "function"
    },
    {
      "inputs": [],
      "name": "stakingToken",
      "outputs": [
        {
          "internalType": "contract IERC20",
          "name": "",
          "type": "address"
        }
      ],
      "stateMutability": "view",
      "type": "function"
    },
    {
      "inputs": [],
      "name": "withdraw",
      "outputs": [],
      "stateMutability": "nonpayable",
      "type": "function"
    }
  ],
  "bytecode": "0x6080604052606460045534801561001557600080fd5b50604051610be8380380610be883398181016040528101906100379190610122565b816000806101000a81548173ffffffffffffffffffffffffffffffffffffffff021916908373ffffffffffffffffffffffffffffffffffffffff16021790555080600160006101000a81548173ffffffffffffffffffffffffffffffffffffffff021916908373ffffffffffffffffffffffffffffffffffffffff1602179055505050610162565b600080fd5b600073ffffffffffffffffffffffffffffffffffffffff82169050919050565b60006100ef826100c4565b9050919050565b6100ff816100e4565b811461010a57600080fd5b50565b60008151905061011c816100f6565b92915050565b60008060408385031215610139576101386100bf565b5b60006101478582860161010d565b92505060206101588582860161010d565b9150509250929050565b610a77806101716000396000f3fe608060405234801561001057600080fd5b506004361061007d5760003560e01c80637b0a47ee1161005b5780637b0a47ee146100da578063a694fc3a146100f8578063c57a202c14610114578063f7c618c1146101445761007d565b806327e235e3146100825780633ccfd60b146100b257806372f702f3146100bc575b600080fd5b61009c60048036038101906100979190610677565b610162565b6040516100a991906106bd565b60405180910390f35b6100ba61017a565b005b6100c461042b565b6040516100d19190610737565b60405180910390f35b6100e261044f565b6040516100ef91906106bd565b60405180910390f35b610112600480360381019061010d919061077e565b610455565b005b61012e60048036038101906101299190610677565b6105d6565b60405161013b91906106bd565b60405180910390f35b61014c6105ee565b6040516101599190610737565b60405180910390f35b60026020528060005260406000206000915090505481565b6000600260003373ffffffffffffffffffffffffffffffffffffffff1673ffffffffffffffffffffffffffffffffffffffff16815260200190815260200160002054905060008111610201576040517f08c379a00000000000000000000000000000000000000000000000000000000081526004016101f890610808565b60405180910390fd5b6000600454600360003373ffffffffffffffffffffffffffffffffffffffff1673ffffffffffffffffffffffffffffffffffffffff16815260200190815260200160002054426102519190610857565b61025b919061088b565b90506000600260003373ffffffffffffffffffffffffffffffffffffffff1673ffffffffffffffffffffffffffffffffffffffff168152602001908152602001600020819055506000600360003373ffffffffffffffffffffffffffffffffffffffff1673ffffffffffffffffffffffffffffffffffffffff1681526020019081526020016000208190555060008054906101000a900473ffffffffffffffffffffffffffffffffffffffff1673ffffffffffffffffffffffffffffffffffffffff1663a9059cbb33846040518363ffffffff1660e01b81526004016103429291906108dc565b6020604051808303816000875af1158015610361573d6000803e3d6000fd5b505050506040513d601f19601f82011682018060405250810190610385919061093d565b50600160009054906101000a900473ffffffffffffffffffffffffffffffffffffffff1673ffffffffffffffffffffffffffffffffffffffff1663a9059cbb33836040518363ffffffff1660e01b81526004016103e39291906108dc565b6020604051808303816000875af1158015610402573d6000803e3d6000fd5b505050506040513d601f19601f82011682018060405250810190610426919061093d565b505050565b60008054906101000a900473ffffffffffffffffffffffffffffffffffffffff1681565b60045481565b60008111610498576040517f08c379a000000000000000000000000000000000000000000000000000000000815260040161048f906109b6565b60405180910390fd5b60008054906101000a900473ffffffffffffffffffffffffffffffffffffffff1673ffffffffffffffffffffffffffffffffffffffff166323b872dd3330846040518463ffffffff1660e01b81526004016104f5939291906109d6565b6020604051808303816000875af1158015610514573d6000803e3d6000fd5b505050506040513d601f19601f82011682018060405250810190610538919061093d565b5080600260003373ffffffffffffffffffffffffffffffffffffffff1673ffffffffffffffffffffffffffffffffffffffff16815260200190815260200160002060008282546105889190610a0d565b9250508190555042600360003373ffffffffffffffffffffffffffffffffffffffff1673ffffffffffffffffffffffffffffffffffffffff1681526020019081526020016000208190555050565b60036020528060005260406000206000915090505481565b600160009054906101000a900473ffffffffffffffffffffffffffffffffffffffff1681565b600080fd5b600073ffffffffffffffffffffffffffffffffffffffff82169050919050565b600061064482610619565b9050919050565b61065481610639565b811461065f57600080fd5b50565b6000813590506106718161064b565b92915050565b60006020828403121561068d5761068c610614565b5b600061069b84828501610662565b91505092915050565b6000819050919050565b6106b7816106a4565b82525050565b60006020820190506106d260008301846106ae565b92915050565b6000819050919050565b60006106fd6106f86106f384610619565b6106d8565b610619565b9050919050565b600061070f826106e2565b9050919050565b600061072182610704565b9050919050565b61073181610716565b82525050565b600060208201905061074c6000830184610728565b92915050565b61075b816106a4565b811461076657600080fd5b50565b60008135905061077881610752565b92915050565b60006020828403121561079457610793610614565b5b60006107a284828501610769565b91505092915050565b600082825260208201905092915050565b7f4e6f207374616b6520666f756e64000000000000000000000000000000000000600082015250565b60006107f2600e836107ab565b91506107fd826107bc565b602082019050919050565b60006020820190508181036000830152610821816107e5565b9050919050565b7f4e487b7100000000000000000000000000000000000000000000000000000000600052601160045260246000fd5b6000610862826106a4565b915061086d836106a4565b925082820390508181111561088557610884610828565b5b92915050565b6000610896826106a4565b91506108a1836106a4565b92508282026108af816106a4565b915082820484148315176108c6576108c5610828565b5b5092915050565b6108d681610639565b82525050565b60006040820190506108f160008301856108cd565b6108fe60208301846106ae565b9392505050565b60008115159050919050565b61091a81610905565b811461092557600080fd5b50565b60008151905061093781610911565b92915050565b60006020828403121561095357610952610614565b5b600061096184828501610928565b91505092915050565b7f43616e6e6f74207374616b65207a65726f000000000000000000000000000000600082015250565b60006109a06011836107ab565b91506109ab8261096a565b602082019050919050565b600060208201905081810360008301526109cf81610993565b9050919050565b60006060820190506109eb60008301866108cd565b6109f860208301856108cd565b610a0560408301846106ae565b949350505050565b6000610a18826106a4565b9150610a23836106a4565b9250828201905080821115610a3b57610a3a610828565b5b9291505056fea2646970667358221220dbd944ef605b084d96bd8eaeff7a476ea0305926715bd088baaa02523f88896664736f6c634300081c0033",
  "linkReferences": {},
  "deployedLinkReferences": {}
}